:020000040800F2
:1000000000800120F905000849060008490600089B
:1000100049060008490600084906000800000000DB
:100020000000000000000000000000004906000879
:10003000490600080000000049060008CD0200083B
:1000400000000000490600084906000849060008AB
:100050004906000849060008490600084906000844
:100060004906000849060008490600084906000834
:100070004906000849060008490600084906000824
:10008000490600084906000849060008000000006B
:100090000000000000000000000000004906000809
:1000A00049060008690300084906000849060008D7
:1000B00049060008490600084906000849060008E4
:1000C00049060008490600084906000849060008D4
:1000D000490600084906000849060008000000001B
:1000E000490600084906000849060008000000000B
:1000F00000000000000000000000000049060008A9
:1001000000000000490600084906000849060008EA
:1001100000000000000000000000000000000000DF
:100120004906000849060008490600084906000873
:100130004906000800000000000000000000000068
:100140000000000000000000000000004906000858
:10015000F50300084906000849060008490600089A
:1001600049060008490600080000000000000000E1
:10017000000000000000000000000000000000007F
:10018000000000000000000000000000000000006F
:040190004906000814
:1001940010B5054C237833B9044B13B10448AFF3BD
:1001A40000800123237010BD18000020000000000F
:1001B4009406000808B5034B1BB103490348AFF389
:1001C400008008BD000000001C0000209406000808
:1001D40080B400AF064BD3F88830054A43F470036B
:1001E400C2F8883000BFBD465DF8047B704700BF8D
:1001F40000ED00E080B483B000AF0346FB7197F9D3
:100204000730002B0BDBFB7903F01F02074997F93A
:1002140007305B09012000FA02F241F8232000BFF5
:100224000C37BD465DF8047B704700BF00E100E079
:1002340080B483B000AF03463960FB7197F907308F
:10024400002B0ADB3B68DAB20C4997F9073012013C
:10025400D2B20B4483F800230AE03B68DAB20849BF
:10026400FB7903F00F03043B1201D2B20B441A765C
:1002740000BF0C37BD465DF8047B704700E100E029
:1002840000ED00E080B582B000AF78607B68013B90
:10029400B3F1807F01D301230FE00A4A7B68013B5D
:1002A40053600F214FF0FF30FFF7C2FF054B0022D0
:1002B4009A60044B07221A60002318460837BD468B
:1002C40080BD00BF10E000E080B400AF064B1B68A7
:1002D400002B04D0044B1B68013B034A136000BF8E
:1002E400BD465DF8047B70473400002080B483B0C1
:1002F40000AF78607B68074A136000BF054B1B683A
:10030400002BFBD100BF00BF0C37BD465DF8047B5A
:10031400704700BF3400002080B400AF0F4B1B6B4C
:100324000E4A43F0010313630D4B1B680C4A23F47C
:10033400406313600A4B1B68094A43F480631360EB
:10034400074B9B68064A43F440639360044B2022A6
:100354009A6100BFBD465DF8047B704700380240D7
:100364000000024080B400AF4FF080431B6903F0EB
:100374000103002B07D04FF080431B694FF08042EC
:1003840023F00103136100BFBD465DF8047B704791
:1003940080B500AF144B5B6C134A43F00103536404
:1003A400124B00229A62114B40F28162DA620F4BC7
:1003B4005B690E4A43F0010353610C4B1B690B4A02
:1003C40023F001031361094BDB68084A43F48043BB
:1003D400D360064BDB68054A43F00103D3601C205D
:1003E400FFF708FF00BF80BD003802400000014055
:1003F40080B400AF044B5B68034B5B6800BFBD4631
:100404005DF8047B704700BF0064024080B400AF15
:10041400254B1B6B244A43F480031363234B4FF097
:1004240040621A60214B1B68204A43F40053136056
:100434001E4B1B681D4A43F4006313601B4B1B686F
:100444001A4A43F480631360184B1B68174A43F03D
:1004540040031360154B1B68144A43F400331360C4
:10046400124B1B68114A43F4807313600F4B1B68D3
:100474000E4A43F0100313600C4B1B680B4A43F005
:1004840008031360094B1B68084A43F01003136008
:10049400064B1B68054A43F00403136000BFBD46C6
:1004A4005DF8047B704700BF003802408864024056
:1004B40080B485B000AFF860B9601346FB800A4A87
:1004C400FB885360084AFB689360074ABB68D360A3
:1004D400054B1B68044A43F00103136000BF143743
:1004E400BD465DF8047B70478864024080B586B0E1
:1004F40000AFFFF711FFFFF789FF374B0A221946B8
:100504003648FFF7D5FFFFF743FF354B1B68354AE5
:10051400A2FB03239B091846FFF7B4FE324BDB68AA
:10052400314A43F48073D360304B5B682F4A43F401
:10053400006353600023FB732D4B7B617B69BB60BD
:1005440042E07B695A1C7A611B78FB712023BB80D3
:1005540000233B612BE03B6901331F4A32F813301F
:100564001AB2B7F90430DB431BB213401AB23B6929
:10057400013391B2184A22F813103B690133164A29
:1005840032F813301AB2F9793B6941FA03F35B018B
:100594001BB203F020031BB213431AB23B690133AD
:1005A40091B20D4A22F813103B6901333B613B6958
:1005B400072BD0DD0C4B1B680B4A43F0010313607F
:1005C4004FF47A70FFF792FE7B691B78002BB8D149
:1005D400BB687B61F8E700BF040000201400024000
:1005E40000000020D34D621000000140006402406E
:1005F400AC0600080D488546FFF7EAFD0C480D4996
:100604000D4A002302E0D458C4500433C4188C4269
:10061400F9D30A4A0A4C002301E013600432A242CF
:10062400FBD300F011F8FFF761FFFEE70080012023
:100634000000002018000020BC060008180000205C
:1006440038000020FEE7000070B50D4D0D4C641B12
:10065400A4100026A64209D10B4D0C4C00F018F84A
:10066400641BA4100026A64205D170BD55F8043BB6
:1006740098470136EEE755F8043B98470136F2E710
:10068400B4060008B4060008B4060008B80600085A
:10069400F8B500BFF8BC08BC9E467047F8B500BF6B
:0806A400F8BC08BC9E4670473B
:0806AC0048656C6C6F00000052
:0406B400B901000880
:0406B80095010008A0
:1006BC000024F40000000000000000000000000016
:0806CC00000000000000200006
:04000005080005F9F1
:00000001FF
